:020000040000fa
:080000000002040000000000f2
:020000040000fa
:100400002fe020000e7f22000e0188000000000077
:1004100000012000200288000c000700607120000d
:100420000100200011000700000020000000e00093
:1004300002003200000002000000000098020200ea
:10044000000000000040da000000fe004440a90067
:10045000000020000000e000030032000000200047
:10046000a00188004440a800000006009101880017
:10047000800078000000eb0015003700e2804000ab
:1004800032a0b4009101ba00e280400032a0b40072
:100490009102ba00e280400032a0b4000002eb00fa
:1004a000472bde00f507b200602ce10004003a00a3
:1004b0000059eb008301e900fdff3e000400370016
:1004c0006128e100010032000082eb000400070017
:1004d0001101ba000200e000e8ff3a000000060047
:1004e0003159ba008301e9000c0032002159ba00e9
:1004f0008301e900080032000400e00003003a0034
:10050000e280400032a0b400f5ff370011d9ba00f4
:100510008301e900faff3a008100e800e180400031
:1005200032a0b400000006000040da000000fe0027
:020000040000fa
:020000040001f9
:0457f0003fff000077
:020000040000fa
:020000040001f9
:0457f400fffc0000b6
:020000040000fa
:020000040001f9
:0457f800bf100000de
:020000040000fa
:020000040001f9
:0457fc007f3f0000eb
:020000040000fa
:100008009402000094020000940200009402000090
:100018009402000094020000940200009402000080
:100028009402000094020000940200009402000070
:100038009402000094020000940200009402000060
:020000040000fa
:020000040000fa
:100530002800fa000002eb00443a8800243a8000c8
:100540000480a1000490a10004a0a100243a880026
:10055000243a80000460a1000470a100243a8800bd
:100560004567a900243a800004c0a10004d0a1007e
:1005700004e0a100243a880040a7a900c0e2a90035
:10058000c2e2a800c102a900c302a900c122a900b9
:10059000c322a900c142a900c342a90004c020008f
:1005a000050020003407980045079800040120004a
:1005b0000500200054079800650798002e4a900017
:1005c000e04f520001003a00060207001061a80047
:1005d0008500a9009500a9005e039000ee0390003d
:1005e000f40f2000050020000600780007037800c3
:1005f00084037800050278000700600004026300ad
:1006000005002000c022dd00040020000403be001d
:100610006102b8000403730085837300f40f2000a7
:1006200005002000840f5300858f5b001600320008
:100630002e4a90000402fb00cfa2de00062021001b
:1006400006abb90006037800a707200007a0b90091
:10065000800378000703430084027800042021000f
:10066000042ab80005034300860278005407980066
:10067000650798006e029000740888005e02900082
:100680006408880011e1a80034032000c411880028
:100690003535800004fe2f00048262009401b3000f
:1006a00034358800c536800004fe2f0004826200c5
:1006b0005400b300c4368800040028008411880068
:1006c00004402000941188006e0247000400780066
:1006d000d10007006e4a90000402fb00cfa2de00aa
:1006e0009600200007002000860f5200878f5a00d6
:1006f000c5003e0004600100bd003700c2003700a5
:10070000070037001b003700bf003700be0037006e
:10071000bd0037005f0037007f0037003c00370026
:100720007002470004007800bb0007007002470019
:100730000402e80004007800b700070070024700d8
:100740000482e80004007800b30007000042eb00d8
:10075000345798000e0990009e09900000802000f8
:10076000da0007000160200000802000010107007e
:10077000a80037007402470004007800a6000700b4
:10078000740247000402e80004007800a200070099
:10079000740247000482e800040078009e0007000d
:1007a0000042eb00745798000002eb00040f780041
:1007b000060037009e027800048020000482420078
:1007c00004007800940007001e0fe800f45f20008a
:1007d0009e027800848f5200f6ff3400ae0a90002b
:1007e0003e0a90002204240085007800040078006e
:1007f0007f0107002e099000be09900000802000b4
:10080000fb00070010c0b300ed00070081003700b7
:1008100004002000f50f2000440f9800550f9800a9
:10082000ce0a90005e0a90008500780004007800ef
:10083000680107000002be00640f9800750f980061
:100840007c0247004100200004007800c900070036
:1008500024002000f50f2000440f9800550f980049
:10086000ce0a90005e0a90008500780004007800af
:10087000580107000002be00640f9800750f980031
:100880007c0247004100200004007800b900070006
:10089000600037000002eb00140798001a003700d0
:1008a0009e02900004802000048242009e0290007c
:1008b0008502e8001507980004007800560007003c
:1008c0009e02900004802000048242009e0290005c
:1008d0008502e80015079800040078004e00070024
:1008e0009e02900004802000048242009e0290003c
:1008f0008502e8001507980004007800460007000c
:1009000010c0b300ae0007001e029000f70f5200a7
:10091000e3ff34003f0037000002eb00240798009b
:1009200004002000850f2000041798001517980078
:1009300026003700ae0290000480200004824200ae
:1009400014427800e04f520017003a002e02900047
:100950008402e800048020000482420014427800ef
:10096000446798002e0290008482e80004802000f2
:10097000048242001442780054679800ae1390003d
:100980003e1390008e1290001e1290008701780096
:10099000060178008500780004007800090107004e
:1009a00000002400fc0007002e02900063024200b9
:1009b000240798000e1290009e12900062024200de
:1009c000e0824a0004179800151798002e02900044
:1009d000f70f5200d7ff3400c2e2a900c302a900fa
:1009e000c322a900c342a900fe0007000900370086
:1009f000c2e2a900c302a900c322a900c342a90000
:100a0000f8000700030037000040eb006c0007000f
:100a1000000000002cff37000200fa00000f7800f1
:100a20000100370000000000c342a900c322a90052
:100a3000c302a90025048000041020000482620083
:100a4000e00f5200040032009e0278000042eb00ea
:100a5000844a78001b003700941180006402620011
:100a6000e00f520003003200c342a8003242a90046
:100a7000130037009411800062026200e00f520000
:100a800003003200c322a8003222a9000c00370064
:100a90009411800061026200e00f5200e1ff320019
:100aa000c302a80011e1a900b4118000044278003b
:100ab0009e027800844a78000000000001003700a0
:100ac000d9ff37000080fa00000006000c00fa0091
:100ad0003007980042079800530798000002eb0087
:100ae000040f78001d003700ce0290005e029000d7
:100af0008500780004007800b60007000002be0000
:100b000014079800250798004e429000be029000fe
:100b1000844a78003e0290008402e8003e42900041
:100b2000844a78003e0290008482e8002e429000c1
:100b3000844a78003e029000630242003407980025
:100b40004e029000de02900062024200e0824a0003
:100b500044079800550798001e0fe800f41f200076
:100b60009e027800848f5200dfff34000080fa007c
:100b7000000006000600fa00100798002107980000
:100b80000002eb00040f7800070037001e02780017
:100b90009e029000048242001442780004407800d3
:100ba000070007001e0fe8002e0290009e0278004a
:100bb000848f5200f5ff35000080fa000000060027
:100bc0000200fa00004f780000000000951180003c
:100bd0000410200004826200e00f5200fbff32008c
:100be0001e02fb00a41188000080fa00000006002d
:100bf0001600fa00000f9800120f9800230f9800bb
:100c00000002eb00040f78000002eb0014079800cc
:100c1000580037001e0290008e0a900004824200a5
:100c200014427800444798001e0290000402e80035
:100c30008e0a9000048242001442780054479800c3
:100c40001e0290000482e8008e0a90000482420096
:100c500014427800644798000042eb007447980003
:100c60001e0290006302420014079800ae03900039
:100c70003e0390009e0a90002e0a900087017800a3
:100c80000601780085007800040078004d00070018
:100c90001e0b9000ae0b9000f40120000500200018
:100ca00006007800070378008403780005027800c6
:100cb000070060000402630005002000c022dd0080
:100cc000040020000403be006102b80004037300a6
:100cd000858373008401200005002000840f5300e9
:100ce000858f5b0008003a001e0a9000ae0a900053
:100cf00044079800550798002e029000be0290000d
:100d000064079800750798001e027800e00f5200f3
:100d1000110032001e02e80084027800f403200073
:100d200004826200e00f52000b003a00ee039000d4
:100d30007e039000ce0290005e0290008701780052
:100d40000601780085007800040078001d00070087
:100d500010002400100007001e0a9000ae0a900048
:100d600062024200e0824a00140f9800250f9800aa
:100d70001e0fe800f41f20009e027800848f5200ae
:100d8000a4ff34000080fa000000060090018800f3
:100d90008100780000000600003b8800500520001c
:100da000303b880050058000303b880061e7a80098
:100db000000000000000000061e7af00feff370008
:100dc00000000600900188008308bb008288bb00f9
:100dd00000000600900188001100ba009180ba005e
:100de00000000600000c04000000000000000600e7
:100df0003200f800023b8800900188008108bb00a7
:100e000050052000303b8800a00a2000303b8800bd
:100e100061e7a800000000000000000061e7af00eb
:0c0e2000feff37003200f9000000060061
:020000040000fa
:100e2c0000080000020600000000000000000000a6
:00000001FF
