:020000040000fa
:080000000002040000000000f2
:020000040000fa
:1000080090020000900200009002000090020000a0
:100018009002000090020000900200009002000090
:100028009002000090020000900200009002000080
:100038009002000090020000900200009002000070
:020000040000fa
:020000040000fa
:100400002fe020000e7f22000e0188000000000077
:100410000c000700206c20000100200011000700e4
:10042000000020000000e000020032000000020096
:100430000000000094020200000000000040da000a
:100440000000fe004440a900000020000000e00081
:100450000300320000002000a00188004440a800f2
:100460000000060091018800800078000000eb0089
:1004700015003700e280400032a0b4009101ba00bc
:10048000e280400032a0b4009102ba00e280400055
:1004900032a0b4000002eb00472bde00f507b200eb
:1004a000602ce10004003a000059eb008301e900f0
:1004b000fdff3e00040037006128e100010032002a
:1004c0000082eb00040007001101ba000200e00006
:1004d000e8ff3a00000006003159ba008301e90044
:1004e0000c0032002159ba008301e90008003200f3
:1004f0000400e00003003a00e280400032a0b400b3
:10050000f5ff370011d9ba008301e900faff3a007c
:100510008100e800e180400032a0b4000000060045
:080520000040da000000fe00bb
:020000040000fa
:100528002800fa000000eb00403a8800213a8000d9
:10053800f08f2f0000806000203a8800213a800068
:10054800f0f32f0000806000203a88004567a9007a
:10055800213a8000f0ff280000806000203a8800df
:1005680040a7a900c0e2a900c2e2a800c102a900f0
:10057800c302a900c122a900c322a900c142a9003f
:10058800c342a90000c020000100200030079800e5
:100598004107980000012000010020005007980042
:1005a800610798002e489000e04f500001003a0083
:1005b800e00107001061a8008500a9009500a900c6
:1005c8005e019000ee019000f00f20000100200075
:1005d80002027800030178008001780001007800a9
:1005e800030262000000610001002000c000dd007d
:1005f800000020000001be006120b8000001710069
:1006080081817100f00f200001002000800f51004f
:10061800818f5900150032002e4890000000fb0021
:10062800cf80de00029020000289b9000201780024
:10063800d30320000382b90084017800030141003c
:10064800039020000300b8000101410082007800f7
:1006580050079800610798006e00900070088800a5
:100668005e0090006008880011e1a8009001200059
:10067800c01188003135800000fe2f000080600026
:100688009001b30030358800c136800000fe2f008d
:10069800008060005000b300c036880000002800c9
:1006a8008011880000402000901188006e004700eb
:1006b800b90007006e4890000000fb00cf80de0004
:1006c8009200200003002000820f5000838f580002
:1006d800ad003e0000600100a5003700aa00370009
:1006e8000700370018003700a7003700a6003700ba
:1006f800a50037004e0037006b0037003300370085
:1007080070004700a4000700700047000000e800e0
:10071800a1000700700047000080e8009e00070065
:100728000040eb00305798000e0990009e09900099
:1007380000802000c5000700016020000080200024
:10074800e900070093003700740047009200070093
:10075800740047000000e8008f000700740047009d
:100768000080e8008c0007000040eb0070579800fc
:100778000000eb00000f7800050037009e007800ad
:100788000080200000804000830007001e0fe80062
:10079800f05f20009e007800808f5000f7ff340043
:1007a800ae0890003e08900022042400640107006f
:1007b8002e099000be09900000802000e800070084
:1007c80010c0b300da0007007200370000002000f4
:1007d800f10f2000400f9800510f9800ce089000ac
:1007e8005e0890004f010700600f9800710f980095
:1007f8007c00470041002000bb00070020002000cb
:10080800f10f2000400f9800510f9800ce0890007b
:100818005e08900043010700600f9800710f980070
:100828007c00470041002000af0007005900370056
:100838000000eb0010079800170037009e0090009a
:1008480000802000008040009e0090008100e800a9
:1008580011079800500007009e00900000802000bb
:10086800008040009e0090008100e8001107980079
:10087800490007009e009000008020000080400092
:100888009e0090008100e8001107980042000700d0
:1008980010c0b300a60007001e009000f70f50001c
:1008a800e6ff34003b0037000000eb00200798000b
:1008b80000002000810f20000017980011179800f1
:1008c80022003700ae009000008020000080400029
:1008d80010407800e04f500013003a002e009000be
:1008e8008000e80000802000008040001040780070
:1008f800406798002e0090008080e800008020006b
:10090800008040001040780050679800ae119000b9
:100918003e1190008e1090001e109000fd00070000
:1009280000002400f00007002e0090006300400043
:10093800200798000e1090009e1090006200400062
:10094800e080480000179800111798002e009000ca
:10095800f70f5000dbff3400c2e2a900c302a90070
:10096800c322a900c342a900f2000700090037000a
:10097800c2e2a900c302a900c322a900c342a90078
:10098800ec000700030037000040eb006800070098
:100998000000000045ff37000200fa00000f780051
:1009a8000100370000000000c342a900c322a900cb
:1009b800c302a9002104800000102000008060000c
:1009c800e00f5000040032009e0078000040eb0069
:1009d800804878001b003700901180006400600098
:1009e800e00f500003003200c342a8003242a900c1
:1009f800130037009011800062006000e00f500083
:100a080003003200c322a8003222a9000c003700dc
:100a18009011800061006000e00f5000e1ff32009b
:100a2800c302a80011e1a900b011800000407800bd
:100a38009e00780080487800000000000100370020
:100a4800d9ff37000080fa00000006000c00fa0009
:100a58003007980042079800530798000000eb0001
:100a6800000f78001a003700ce0090005e0090005a
:100a7800ac00070010079800210798004e4090002e
:100a8800be009000804878003e0090008000e8009a
:100a98003e409000804878003e0090008080e8004a
:100aa8002e409000804878003e009000630040008f
:100ab800300798004e009000de0090006200400071
:100ac800e080480040079800510798001e0fe80092
:100ad800f01f20009e007800808f5000e2ff340055
:100ae8000080fa00000006000600fa0010079800cf
:100af800210798000000eb00000f7800060037007f
:100b08001e0078009e009000008040001040780091
:100b1800070007001e0fe8002e0090009e007800d6
:100b2800808f5000f6ff35000080fa0000000600b4
:100b38000200fa00004f78000000000091118000c8
:100b48000010200000806000e00f5000fbff320022
:100b58001e00fb00a01188000080fa0000000600bb
:100b68001600fa00000f9800120f9800230f980043
:100b78000000eb00000f78000000eb001007980061
:100b8800500037001e0090008e0890000080400042
:100b980010407800404798001e0090000000e800d0
:100ba8008e08900000804000104078005047980060
:100bb8001e0090000080e8008e0890000080400031
:100bc80010407800604798000040eb00704798009c
:100bd8001e0090006300400010079800ae019000ce
:100be8003e0190009e0890002e08900049000700e2
:100bf8001e099000ae099000f001200001002000bd
:100c08000202780003017800800178000100780072
:100c1800030262000000610001002000c000dd0046
:100c2800000020000001be006120b8000001710032
:100c3800818171008001200001002000800f510097
:100c4800818f590008003a001e089000ae089000f5
:100c580040079800510798002e009000be009000b1
:100c680060079800710798001e007800e00f500098
:100c78000d0032001e00e80080007800f00320001c
:100c880000806000e00f500007003a00ee0190007d
:100c98007e019000ce0090005e0090001d000700cd
:100ca80010002400100007001e089000ae089000f5
:100cb80062004000e0804800100f9800210f980063
:100cc8001e0fe800f01f20009e007800808f500063
:100cd800acff34000080fa00000006009001880094
:100ce8008100780000000600003b880050052000c5
:100cf800303b880050058000303b880061e7a80041
:100d0800000000000000000061e7af00feff3700b0
:100d180000000600900188008308bb008288bb00a1
:100d280000000600900188001100ba009180ba0006
:100d380000000600000c040000000000000006008f
:100d48003200f800023b8800900188008108bb004f
:100d580050052000303b8800a00a2000303b880066
:100d680061e7a800000000000000000061e7af0094
:0c0d7800feff37003200f900000006000a
:020000040000fa
:100d8400000800000206000000000000000000004f
:020000040000fa
:020000040001f9
:0457f0003fff000077
:020000040000fa
:020000040001f9
:0457f400fffc0000b6
:020000040000fa
:020000040001f9
:0457f800bf100000de
:020000040000fa
:020000040001f9
:0457fc007f3f0000eb
:00000001FF
